:020000040007F3
:10800000205800204984070051840700538407004A
:1080100055840700578407005984070000000000BA
:108020000000000000000000000000005B8407006A
:108030005D840700000000005F8407006184070082
:108040006384070063840700638407006384070078
:108050006384070063840700638407006384070068
:108060006384070063840700638407006384070058
:108070006384070035980700638407006384070062
:1080800063840700999807006384070063840700EE
:10809000BD98070063840700C19807006384070048
:1080A0006384070063840700638407006384070018
:1080B00063840700638407000000000000000000E4
:1080C00063840700638407006384070063840700F8
:1080D00063840700638407006384070000000000D6
:1080E0000000000000000000000000000000000090
:1080F0000000000000000000000000000000000080
:10810000000000000000000000000000000000006F
:10811000000000000000000000000000000000005F
:10840000DFF80CD000F072F8004800478DAD07008F
:1084100020580020056885F308884068FF2464B26E
:10842000EFF30585002D01D1A646004725460646F7
:1084300021273FBAF0B40024002500260027F0B41D
:10844000F92040B200470000064880470648004730
:10845000FEE7FEE7FEE7FEE7FEE7FEE7FEE7FEE7F4
:10846000FEE7FEE7E598070001840700202A04DB09
:10847000203A00FA02F1002070479140C2F1200337
:1084800020FA03F319439040704740EA01039B0729
:1084900003D009E008C9121F08C0042AFAD203E079
:1084A00011F8013B00F8013B521EF9D27047D2B2DD
:1084B00001E000F8012B491EFBD270470022F6E7CD
:1084C00010B513460A4604461946FFF7F0FF20464A
:1084D00010BD30B504460020034600E05B1C93420B
:1084E00003D2E05CCD5C401BF8D030BD064C074D9C
:1084F00006E0E06840F0010394E807009847103474
:10850000AC42F6D3FFF780FF08D6070028D6070055
:108510002DE9F0438BB01446129D15F9046B0096BB
:108520001F46804689462B460246214602A800F097
:10853000B6FC02A9129A084600F0A1FC129B02AAFE
:108540004146404600F08BFC129B02AA2146204681
:1085500000F085FC2B464A4639463846009600F026
:108560009EFC129A394602A800F089FC02A92B460B
:1085700042460846009600F092FC02A92B4622468D
:108580000846009600F08BFC2B46424621462046CA
:10859000009600F084FC129B22464946484600F0B3
:1085A0005EFC2B4602AA41462046009600F077FC6E
:1085B000129B22463946384600F051FC2B464A466B
:1085C00039463846009600F06AFC324602A9204639
:1085D00000F02BFE0BB0BDE8F083F0B5154689B076
:1085E0001C4607460E461A462946684600F047FCD8
:1085F00023466A463946384600F031FC23462A466F
:108600006946684600F02BFC23466A4631463046F0
:1086100000F025FC09B0F0BD8B1802448B4200D15C
:10862000704713F8010D02F8010DF7E72DE9F04747
:10863000B3F9024088461E4604F11F012023073487
:1086400091FBF3F708234FFA87F994FBF3F4944274
:1086500028BF14464946054600F070FA22464146B6
:10866000FFF7DAFFB6F90230E4009C4221D9E41AA0
:1086700005EB87010022C4F120078D420FD3243679
:108680004A462946304600F064FA012811D04B468C
:10869000324629462846BDE8F04700F019BF51F898
:1086A000040C20FA04F3134341F8043D00FA07F2E6
:1086B000E3E7BDE8F0872DE9F04793F9006092B059
:1086C00004468946104631461546984600F069FA38
:1086D000002840F093804246494602A800F0CFFBB4
:1086E000434602AA21460AA800F0B9FB02A908469F
:1086F000424600F0C4FB43462A464946484600F03D
:10870000AEFB08F1040742462946284600F0B7FBB5
:108710003B462A4621462046009600F0EFFA3B46AB
:108720002A4629462846009600F0E8FA3B462A46A3
:1087300021462846009600F0B2FB43462A462146D1
:10874000204600F08CFB3B462246214628460096F8
:1087500000F0D4FA3B4600962A462146204600F017
:10876000CDFA2368DB074CD533463A4621462046EE
:1087700000F0B6F931468246204600F048FD06F189
:108780008043013B54F8230040EACA7044F82300B8
:1087900042462146284600F072FB3B460AAA29467B
:1087A0002846009600F07BFB3B460AAA294628464D
:1087B000009600F074FB0AA908463B462A4600963C
:1087C00000F06DFB43460AAA2146204600F047FB15
:1087D00002AA3B4610462146009600F060FB324656
:1087E0002946204600F021FD32464946284600F041
:1087F0001CFD324602A9484600F017FD12B0BDE844
:10880000F0873146204600F002FDC1E7004870477E
:1088100058D507002DE9F04FEDB01F46DDF8D8819F
:108820000590B8F9026098F9005020231F3696FB96
:10883000F3F676B206F1FF3924AB002443F8294061
:108840006CAB03EB89034CA88A469346394698F9EA
:10885000012043F8804C43F8604CFFF7DDFE98F9A7
:10886000012054A8B918FFF7D7FE29464CA800F0FC
:1088700098F90746002840F02981294654A800F0BD
:1088800090F90390002840F0238108F12403324638
:108890004CA91846029300F05CF9012840F01A81B7
:1088A000324654A9029800F054F90128069040F08D
:1088B00011811CAC0CAF3346029A54A9204600F03B
:1088C00036FA039B47F829305A4651463846434604
:1088D000FFF7ACFE39463846029B0096224600F070
:1088E000ACFA0DF5B879029B009622464CA914A863
:1088F00000F0A3FA48462A46059900F096FCAB0022
:1089000009EB030A0793059BA900591808F1440BCA
:1089100050462A4600F089FC59462A4634A800F001
:1089200084FCAB000BEB03012A463CA800F07DFC65
:1089300008F10403494634AA20460095049300F048
:10894000AEFA53464A463CA934A8CDF80080FFF75A
:10895000DFFD2B46049A2146204600F0E8F9224626
:10896000514648464346FFF738FE039B089331467D
:10897000059B0A933846CDF824B0CDF82C9000F032
:1089800029FC3146814614A800F024FC8145B8BF7B
:1089900081461FFA89F909F1FF3B0FFA8BFB594613
:1089A000384600F0C5FD5946071C14A818BF01271A
:1089B00000F0BEFD002814BF022300231F430DF169
:1089C000200A2A465AF8277024A8394600F02DFCC0
:1089D0000DF1B00BAB00F9182A46584600F025FC03
:1089E0002946204600F0AAF8A9F10209069B236057
:1089F0000FFA89F90DF1900AB9F1000F20DA2B4630
:108A0000049A2146204600F092F9434622465946F0
:108A10005046FFF7E2FD32465146029800F099F8C1
:108A2000012805D03346029A5146504600F050FDC9
:108A30002A464CA9504600F0A0F86DB0BDE8F08F72
:108A400043462246D8F8A47059465046B84749468E
:108A50000CA800F06DFD4946071C14A818BF01279B
:108A600000F066FD002814BF02200020384308AB48
:108A700053F820702FB32A46394634A800F0D5FBAE
:108A8000079B2A46F9183CA800F0CFFB4346224634
:108A90003CA934A8FFF7A1FD049B009534AA5146D8
:108AA00044A800F0FCF95B4652463CA934A8CDF836
:108AB0000080FFF72DFD434644AA2146204600F0E2
:108AC000CEF909F1FF390FFA89F995E72046B4E7A5
:108AD0003846B2E70398B0E700000000000000004D
:108AE000C3F10803DB0070B50133002403A500BF08
:108AF0005B1920C940CAAD1920C0184720C940CA17
:108B0000754120C020C940CA754120C020C940CA53
:108B1000754120C020C940CA754120C020C940CA43
:108B2000754120C020C940CA754120C020C940CA33
:108B3000754120C06441204670BD00BF002310B5C0
:108B40001C465AB2914200DC10BD40F8234001336C
:108B5000F7E710B5013A52B2002A01DA002010BD41
:108B600013B250F8234051F823309C4203D8F1D27D
:108B70004FF0FF3010BD012010BD30B5013A52B2A8
:108B80000023002A03DAB3FA83F0400930BD15B29E
:108B9000013A50F8254051F825506C40234352B219
:108BA000EFE710B500231A465CB2A14203DCB2FA2B
:108BB00082F0400910BD50F8234001332243F3E70F
:108BC0002DE9F04FA5B01D46039114AB2946804610
:108BD00010461746029300F0FDFAC0EB851004B270
:108BE000634203F01F034FF0200694FBF6F676B2C3
:108BF00004F01F0904A858BFC3F100093146FFF76C
:108C00009DFFB9F1000F30B22BDD04AB002203EB66
:108C10008000C9F1200E1346AB4217D32FB27B0060
:108C2000019304AB03EB870705F1FF3924AB012661
:108C300003EB8909002C55DB24AB0022C6F10100AF
:108C4000964603EB860A03EB80002DE057F823607D
:108C500006FA09F10A4340F8232026FA0EF20133FE
:108C6000DAE704AB2A46394603EB800000F0DDFA70
:108C7000D4E70FFA81FC5AF8883C53F82CB024ABA7
:108C800003EB810151F8803CABEB0303A3EB0E0334
:108C90009B4504D034BF4FF0010E4FF0000E50F84A
:108CA000881C41F82C300132019B51B29942E0DB23
:108CB000A6EB0E035E42294604A85E4100F0A7FA27
:108CC00024AB03EB8503294653F8802C59F8803CEC
:108CD000384643EAC273013C49F8803C24B200F0B4
:108CE00096FAA7E724AB03EB86062A4656F8881CBB
:108CF000404600F09AFA25B0BDE8F08F70B59DF9B6
:108D000010401E4623460546FFF7EAFE30B92246CC
:108D100029463046FFF71DFF012807D0234632467B
:108D200029462846BDE8704000F0D2BB70BDF0B5C2
:108D30000F46A1B006461946384615461C46FFF7B1
:108D400030FF28B121463046FFF7F8FE21B0F0BDD4
:108D500022463946684600F068FA2246294608A8A5
:108D600000F063FA214610A8FFF7E8FE0123214630
:108D700018A81093FFF7E2FE224608A96846FFF7FD
:108D8000E8FE28B9224610A9304600F04EFADDE789
:108D9000009BDA0709D42146684600F038FA2246DB
:108DA000294610A800F0A4FCE6E7089BDB0707D4DF
:108DB000214608A800F02BFA2246294618A8F1E718
:108DC000002823461CDD08AA6946684600F080FB9F
:108DD0002146684600F01BFA224618A910A8FFF7A2
:108DE000B8FE002805DA10A923462A460846FFF7F0
:108DF00077FE10A9234618AA084600F069FBCEE7C3
:108E000008A96A46084600F063FB214608A800F05E
:108E1000FEF9224610A918A8FFF79BFE002805DAE4
:108E200018A923462A460846FFF75AFE18A92346E2
:108E300010AA084600F04CFBBEE770B590B005469E
:108E40009DF950401E466846234600F03AF82346F6
:108E5000324669462846FFF7B3FE10B070BD30B504
:108E60001C4691B0054693F90030684600F029F899
:108E7000D4F8AC3069462846984711B030BD30B5BB
:108E8000144691B0054692F90020684600F0D9F9E1
:108E9000D4F8AC3069462846984711B030BD70B55B
:108EA0009DF910401E462346054600F011FB38B1DF
:108EB0002346324629462846BDE87040FFF710BEDB
:108EC00070BD2DE9F04F08B4F8CA04B451F8042B72
:108ED000A3FB028940F8048B4FF0000AE4FB629A7E
:108EE0004FF0000BE5FB62AB4FF0000CE6FB62BC01
:108EF0004FF0000EE7FB62CE51F8042B4FF0000854
:108F0000E3FB628940F8048BE4FB629AE5FB62AB09
:108F1000E6FB62BCE7FB62CE51F8042B4FF0000881
:108F2000E3FB628940F8048BE4FB629AE5FB62ABE9
:108F3000E6FB62BCE7FB62CE51F8042B4FF0000861
:108F4000E3FB628940F8048BE4FB629AE5FB62ABC9
:108F5000E6FB62BCE7FB62CE51F8042B4FF0000841
:108F6000E3FB628940F8048BE4FB629AE5FB62ABA9
:108F7000E6FB62BCE7FB62CE40F8049B40F804AB22
:108F800040F804BB40F804CB40F804EB0CBC052BC4
:108F900000F01E810C68A0F11400A1F11401A2F1EF
:108FA000140252F804EB4FF0000550F8046BE4FB98
:108FB0006E5652F804EB50F8047BE4FB6E6752F8EF
:108FC00004EB50F8048BE4FB6E7852F804EB50F895
:108FD000049BE4FB6E8952F804EB50F804ABE4FB0D
:108FE0006E9AA0F1140052F8044B51F804EB4FF0C4
:108FF000000CE4FB6EC540F804CB51F804EBE4FB35
:109000006E5640F8045B51F804EBE4FB6E6740F8E1
:10901000046B51F804EBE4FB6E7840F8047B51F8E4
:1090200004EBE4FB6E8940F8048B51F804EBE4FB9D
:109030006E9AA0E80006062B00F0CA800C68A0F12A
:109040001800A1F11801A2F1180252F804EB4FF038
:10905000000550F8046BE4FB6E5652F804EB50F830
:10906000047BE4FB6E6752F804EB50F8048BE4FBDE
:109070006E7852F804EB50F8049BE4FB6E8952F8CA
:1090800004EB50F804ABE4FB6E9A52F804EB50F892
:1090900004BBE4FB6EABA0F1180052F8044B51F88E
:1090A00004EB4FF0000CE4FB6EC540F804CB51F824
:1090B00004EBE4FB6E5640F8045B51F804EBE4FB70
:1090C0006E6740F8046B51F804EBE4FB6E7840F8EF
:1090D000047B51F804EBE4FB6E8940F8048B51F8F3
:1090E00004EBE4FB6E9A40F8049B51F804EBE4FBBC
:1090F0006EABA0E8000C072B6AD008B40C68A0F196
:109100001C00A1F11C01A2F11C0252F804EB4FF06B
:10911000000550F8046BE4FB6E5652F804EB50F86F
:10912000047BE4FB6E6752F804EB50F8048BE4FB1D
:109130006E7852F804EB50F8049BE4FB6E8952F809
:1091400004EB50F804ABE4FB6E9A52F804EB50F8D1
:1091500004BBE4FB6EAB52F804EB50F804CBE4FB29
:109160006EBCA0F11C0052F8044B51F804EB4FF018
:109170000003E4FB6E3540F8043B51F804EBE4FBDC
:109180006E5640F8045B51F804EBE4FB6E6740F860
:10919000046B51F804EBE4FB6E7840F8047B51F863
:1091A00004EBE4FB6E8940F8048B51F804EBE4FB1C
:1091B0006E9A40F8049B51F804EBE4FB6EAB40F868
:1091C00004AB51F804EBE4FB6EBCA0E8001808BC4B
:1091D000BDE8F08F013949B2002904DA013149B202
:1091E00031B90846704750F82130002BF2D0F5E72E
:1091F00001F18043013B50F82330002023B90139AD
:1092000000EB411108B270475B080130F6E700EB54
:1092100081010023884200D3704751F8042C43EAAF
:10922000520341F8043DD307F4E710B500235CB2C4
:10923000A24200DC10BD51F8234040F82340013326
:10924000F5E72DE9F04FB1E8005E06B4AAFB09127C
:109250004FF00003EBFB69234FF00004ECFB693493
:109260004FF00005EEFB69454FF00006EBFB6A632B
:10927000ECFB6A344918524176415B41A9FB0978FD
:109280004FF0000949F1000918EB0108A0E880013E
:10929000AAFB0A78574158EB0608A0E88001EEFBCC
:1092A0006A454FF0000A4AF1000A4FF00001ECFB5A
:1092B0006B14EEFB6B454FF00002EEFB6C255FEA92
:1092C00059094941644152416D4149F10009EBFBA3
:1092D0006B3A1AEB010AA0E80804ACFB0C6A664181
:1092E0005AEB020AA0E84004AEFB0E6A6E415AEB4C
:1092F000090AA0E8400406BC052A00F0E680A0F1B7
:109300001400A1F11401B1E8E043A5FB0E344FF0C5
:109310000005E6FB6E454FF00006E7FB6E564FF08A
:109320000007E8FB6E674FF00008E9FB6E784FF02E
:109330000009DB1864416D4176417F4158EB080814
:1093400059F1000950F804CB13EB0C0350F804CB8F
:1093500054EB0C0450F804CB55EB0C0550F804CB3F
:1093600056EB0C0650F804CB57EB0C0758F10008ED
:1093700059F10009A0F11400EEFB0E89A0E8F803F2
:10938000062A00F0A280A0F11800A1F11801B1E8AE
:10939000E047A5FB0E344FF00005E6FB6E454FF0AD
:1093A0000006E7FB6E564FF00007E8FB6E674FF0D4
:1093B0000008E9FB6E784FF00009EAFB6E894FF078
:1093C000000ADB1864416D4176417F4158EB080883
:1093D00059EB09095AF1000A50F804CB13EB0C03BE
:1093E00050F804CB54EB0C0450F804CB55EB0C05AF
:1093F00050F804CB56EB0C0650F804CB57EB0C0797
:1094000050F804CB58EB0C0859F100095AF1000A46
:10941000A0F11800EEFB0E9AA0E8F807072A54D036
:10942000A0F11C00A1F11C01B1E8E04FA5FB0E3436
:109430004FF00005E6FB6E454FF00006E7FB6E5669
:109440004FF00007E8FB6E674FF00008E9FB6E780D
:109450004FF00009EAFB6E894FF0000AEBFB6E9AB1
:109460004FF0000BDB1864416D4176417F4158EBB2
:10947000080859EB09095AEB0A0A5BF1000B50F88E
:1094800004CB13EB0C0350F804CB54EB0C0450F852
:1094900004CB55EB0C0550F804CB56EB0C0650F8FA
:1094A00004CB57EB0C0750F804CB58EB0C0850F8E2
:1094B00004CB59EB0C095AF1000A5BF1000BA0F147
:1094C0001C00EEFB0EABA0E8F80FBDE8F08F00002B
:1094D000C3F10803DB0070B50133002403A500BF0E
:1094E0005B1920C940CAAD1B20C0184720C940CA1B
:1094F000B54120C020C940CAB54120C020C940CADA
:10950000B54120C020C940CAB54120C020C940CAC9
:10951000B54120C020C940CAB54120C020C940CAB9
:10952000B54120C06441B4FA84F0400970BD00BF69
:109530004A11012350F8220001F01F0103FA01F142
:1095400008407047F0B5082289B00C460646FFF780
:109550006CFECB6A03930B6B04934B6B05938B6B85
:109560000693CB6B0793002708236A466946684633
:10957000029701970097FFF7B3FA082305466A465A
:1095800031463046FFF7ACFA236B0393636B0493C9
:10959000A36B0593E36B0693054408236A4669466B
:1095A00068460797FFF79CFA082305446A46314648
:1095B0003046FFF795FA236A0093636A0193A36A22
:1095C0000293A36B0693E36B0793054408236A4653
:1095D00031463046059704970397FFF781FA636A8F
:1095E0000093A36A0193E36AA26B0293636B0393F4
:1095F00004920693E26B236A0592054407936A4638
:10960000082331463046FFF76BFAE36A0093236B79
:109610000193636B0293236A0693A36A079305443D
:1096200008236A4631463046059704970397FFF7AB
:109630004FFF236B0093636B0193A36B0293E36B68
:109640000393636A0693E36A07932D1A08236A4615
:109650003146304605970497FFF73AFF636B009356
:10966000A36B0193E36B0293236A0393636A0493EE
:10967000A36A0593236B07932D1A08236A46314684
:1096800030460697FFF724FFA36B0093E36B01932B
:10969000636A0393A36A0493E36A0593636B079376
:1096A0002D1A08236A463146304602970697FFF77F
:1096B0000FFF2D1A0D4C0FD435B908223146204624
:1096C000FFF747FA01280FD00823224631463046DB
:1096D000FFF7FEFE2D1AEFE70823224631463046FB
:1096E000FFF7FEF92D18F7D409B0F0BD5CD50700DF
:1096F00070B5036813F001050646144605D01346FD
:109700000A460146FFF7ECF9054621463046FFF7C9
:109710007EFD45B104F18042013A56F8223043F013
:10972000004346F8223070BD2DE9F04115468AB05D
:10973000044688462022002102A8FEF7C1FE2E1D05
:1097400095F9007003232A46414620460293FFF70D
:1097500096FB334602AA214620460097FFF79FFB5F
:109760002B46424621462046FFF779FB00973346B9
:1097700005F1840221462046FFF7C0FA0AB0BDE891
:10978000F08100F01F02012191404009800000F1AA
:10979000E020C0F88012704700F01F0201219140C4
:1097A0004009800000F1E020C0F88011704700F00F
:1097B0001F02012191404009800000F1E020C0F823
:1097C0000011704700F01F02012191404009800004
:1097D00000F1E020C0F80011704700F01F020121E5
:1097E00091404009800000F1E020C0F8001270476D
:1097F0004907090E002806DA00F00F0000F1E0200A
:1098000080F8141D704700F1E02080F800147047C4
:10981000BFF34F8F05480168054A01F4E061114329
:109820000160BFF34F8F00BFFDE700000CED00E0CB
:109830000400FA053EB500248DF80040684600F0AB
:1098400069FB03F0BDFBC8B910480F490268AAB113
:10985000D1F8081311F0010F10D0046000680290D5
:109860000B4800688DF8040001A90A4802F00EFABE
:10987000084802F0F5F908B102F086F99DF80000F9
:1098800000F06CFB3EBD000000D0004000D1004065
:1098900008D5004020D4070007480021C0F8401137
:1098A000C0F84411C0F84811C0F84C11C0F80011BC
:1098B000C0F8041103F01CBC0010014003F090BB81
:1098C000074810B5406830B18047002807D0BDE890
:1098D000104000F0E1B9BDE8104001F03DB910BD05
:1098E000842C0020F0B598480023021D0178012542
:1098F000101D4FF08056062907D11478240704D193
:109900000478C4F30314032C02D0062904D00FE01A
:109910008F4F8E4C7C670EE01478240708D10478B2
:10992000C4F30314032C06D0042C04D0052C02D05D
:10993000062907D00EE0D6F84442864FC4F34234DD
:109940003C6002E01478240704D10478C4F30314C3
:10995000032C02D0062906D011E07F4C276827F09F
:10996000807727600EE01478240708D10478C4F3C8
:109970000314032C06D0042C04D0052C02D0062995
:109980000AD011E04FF08044C4F80C31C4F8103113
:10999000704C241F236002E01478240704D104785B
:1099A000C4F30314032C02D0062905D00CE0694F40
:1099B000032464373C600AE01478240704D1047857
:1099C000C4F30314032C02D006290DD014E0634F16
:1099D00005243C60614C78342560604C0834236079
:1099E0003F243F1D3C6002E01478240704D1047832
:1099F000C4F30314052C02D0062957D068E0584957
:109A00000968584A11605649091D0968121D1160FC
:109A1000534908310968121D116051490C31096818
:109A2000121D11604E4910310968121D11604C4918
:109A300014310968121D1160494918310968494AF1
:109A40002032116046491C310968121D11604449D9
:109A500020310968121D1160414924310968121D25
:109A600011603F4928310968121D11603C492C31B1
:109A70000968121D11603A4930310968394A40328B
:109A80001160374934310968121D11603449383189
:109A90000968121D116032493C310968121D1160BC
:109AA0002F4940310968121D116002E01178090741
:109AB0000ED10078C0F30310032803D0042801D08E
:109AC000052805D1D6F85802274900F04F00086054
:109AD00021487438016841F470010160BFF34F8F71
:109AE000BFF36F8F4FF01021D1F80002002803DB85
:109AF000D1F80402002822DA1C4A15601C480468C8
:109B0000002CFCD01524C1F800420568002DFCD0C3
:109B1000C1F8044201680029FCD0136001680029E3
:109B2000FCD0BFF34F8F0C48F0380168114A01F4A4
:109B3000E06111430160BFF34F8F00BFFDE70F49A4
:109B40000D480860F0BD0000E00F00F00DF0ADBA68
:109B500000C007403C050040FCED00E0105600400E
:109B60000404001020C50040E40E004004E501405C
:109B700000E401400400FA050090D003982C002076
:109B800002E008C8121F08C1002AFAD170477047C6
:109B9000002001E001C1121F002AFBD17047000024
:109BA0000121202803DA81400548014003E04028D4
:109BB00002DA2038814009B1012070470020704747
:109BC000FC06FFBC86B00B21ADF8141002218DF805
:109BD000001001228DF801208DF8020003208DF87D
:109BE00003008DF8041059208DF80500FE208DF833
:109BF000060005A90DF109007DDF002818D1BDF888
:109C000014000B2808D8411C8DF8071009210930D1
:109C10008DF8081080B206E00C208DF807000820AF
:109C20008DF808001420C1B200231A46684672DF7E
:109C300006B070477FB5164D287A800702D5002000
:109C400004B070BD00240094019402940620039493
:109C5000FFF7B8FF0028F3D18DF808402820ADF8B1
:109C60000A008DF800400194ADF80C40684673DF9F
:109C70000028E5D14FF0A0414FF40030C1F80C05A9
:109C8000122001F0A5FFA86840F00200A860D6E706
:109C9000382C0020FFF7BCFDFFF7BAFD2DE9F84F87
:109CA000254C8146924660880E46814241D8002765
:109CB0004FF6FF788DF80070684600F02BF9227897
:109CC0006078A188884201DA401C00E00020C0B220
:109CD000904204D19DF8000000F040F927E065783B
:109CE0006078884201DA401C00E0002060709DF836
:109CF000000000F033F9454519D0A068B9F1000F14
:109D000040F835A00DD066B16188E068324605FBA9
:109D100001004946FEF7B9FBA06800EBC50086804C
:109D200002E000EBC50087800020BDE8F88F04202A
:109D3000FBE70920F9E70000502C002010B50E4C7D
:109D400003E0401C00E00020207020786178814210
:109D500010D022786188E068A36802FB010003EB61
:109D6000C20153F83220898890472078A188884220
:109D7000E9DAE6E710BD0000502C002030B5CB003A
:109D800008339DB293074FF0000401D0072030BD87
:109D9000044B9A602A44DA605C701C705880998089
:109DA000002030BD502C0020074B5B6823B12AB146
:109DB00020B10068037C1BB1082070470720704762
:109DC0004174426100207047702C002010B5044699
:109DD000082902D00020FFF75FFFD4E90010BDE89A
:109DE000104008471CB5044ACDE900010821684627
:109DF000FFF754FF1CBD0000CD9D07002DE9F04783
:109E0000074698461446894690074FF0000526D12C
:109E10002CB302F069FE134E06F11000C6F80C8058
:109E20000570457080F802904460756035707570FB
:109E30001420FFF7A6FC07211420FFF7D9FC1420FB
:109E4000FFF7B5FC0848076007211120FFF7D0FC99
:109E50000548001F0068B0600020BDE8F0870720BB
:109E6000FBE70000602C0020081501402DE9FC47AD
:109E7000DFF87890D9F8043073B368B3052902D2BB
:109E80000720BDE8FC87436933B3437C012B25D011
:109E9000002704460025884616468DF8005068467F
:109EA00000F038F801A803F09FF9C8B10121017052
:109EB0000F4944600968C0E90218C0E904769DF8BA
:109EC000040089F801009DF8000000F047F8142014
:109ED000FFF783FC2846D4E70820D2E70F46D8E7EF
:109EE00004259DF8000000F039F8F3E7702C0020FD
:109EF000041501400649496839B130B1416921B1C1
:109F000000210174022103F0CFB80820704700003F
:109F1000702C002030B5EFF3108172B60D4A9468B2
:109F2000012324B10370002900D162B630BD9360D3
:109F30004FF0E023D3F88051074C25401560C3F85B
:109F40008041D3F8844154605A17C3F88421002219
:109F50000270E8E7A8370020FC06FFBC0B498A68BE
:109F6000002A11D000280FD1EFF3108072B60B68D1
:109F70004FF0E022C2F800314B68C2F804310022F1
:109F80008A60002800D162B670470000A837002020
:109F900070B5054601461C220F48FEF776FA0F4CB5
:109FA00000262670286830B1016861604068A060B2
:109FB000201D7ADF02E00948001D7BDF00280AD15E
:109FC0004FF6FF7060806670BDE87040044A002163
:109FD0000448FFF7E9BE70BD68320020242C002041
:109FE00089D10700B4D3070070B51E4C0688002342
:109FF0001B49E289102E15D01B4D112E1CD0122E9C
:10A0000029D0502E17D130F8061F914213D1418923
:10A01000022910D10C3000F006F988B1BDE870407B
:10A0200000F0ACB984884C800469CC604069086158
:10A030004B70002AF2D070BD4FF6FF7048804B7015
:10A040002868FFF757FF0028F5D0A1690029F2D052
:10A05000BDE8704008478268CA60C0680861DDE7F3
:10A06000242C002068320020B4D307000148006887
:10A07000FFF740BFB4D3070030B585B004002AD045
:10A08000164D4FF6FF702246288001208DF81200F1
:10A090004FF65960ADF8100004A90120A0DF002898
:10A0A00017D10F4B0FCB8DE80F00A11C684663DF63
:10A0B00000280ED1204600F0AFFB002809D1204631
:10A0C00000F06EFA002804D1A86840F00100A860F2
:10A0D000002005B030BD0E20FBE70000382C00202A
:10A0E000BCD3070070B5144C0025A068410701D50A
:10A0F000002070BD40F00400A060104800F0B6FEE3
:10A100002088A0F57F41FF3904D0132176DF0500B8
:10A11000EFD10CE0207A800709D574DF0028E8D160
:10A12000112001F055FDA06840F00200A060FFF78B
:10A130009DFF284670BD0000382C0020C0D40100CF
:10A1400000B589B0112001F03BFD122001F038FD6F
:10A15000112001F03DFD122001F03AFD2748006872
:10A16000079001F067FBB8B9254813DFA0B9254B6C
:10A170005022254907A802F0F3FE08B1FFF78CFD35
:10A1800001216A46084602F0C5FE28B91720ADF83D
:10A190001000684602F0B4FE00282CD11B4802F0E3
:10A1A000A5FE002827D100F0A1FC002823D11648E5
:10A1B0005030FFF761FF00281DD11C216846FEF7D3
:10A1C0007DF940F6CD4001904FF48040029003208D
:10A1D0008DF80C000020ADF80E008DF810000C4832
:10A1E00006906846FFF7D4FE002804D109B05DF858
:10A1F00004EBFFF71FBD09B000BD0000B8D3070096
:10A20000008007004DCF07008432002015A2070010
:10A2100079A3070010B50446FFF7E6FE2046BDE827
:10A22000104001F08DBD007800F001007047000083
:10A230000249085C012101F0D2BC0000ACD3070048
:10A240000249085C002101F0CABC0000ACD3070041
:10A250007CB50024084E25460122305D0095002380
:10A260001146019501F09AFC641C042CF4D3BDE85E
:10A270007C4000F003B80000ACD3070010B5002408
:10A280002046FFF7D5FF641C042CF9D310BD10B590
:10A2900043689C18446021B905E013F8010B01F8EC
:10A2A000010B521EF9D2012010BD000038B1054942
:10A2B000814204D80449814201D90120704700201D
:10A2C000704700009C2C0020AC2C00202DE9F05F92
:10A2D00026484168F1B3DFF898B00E688146DBF894
:10A2E000004087688078E11B21F07F45ED1CB0B904
:10A2F000DFF880804FF48030C8F84403C8F80403C6
:10A300001120FFF73EFA1120FFF751FA4FF0010A32
:10A31000C8F800A02F2000F035FE89F802A0B54251
:10A3200000D23546124BE8193C3320F07F401860CC
:10A33000DBF800105A46091B21F07F41001B20F07A
:10A340007F40C91C81420FD9106818602F2000F08F
:10A3500019FE00E004E0BDE8F05F1120FFF73DBA10
:10A36000BDE8F05F02F0C0BBBDE8F09F602C0020AC
:10A370000415014000100140FFF78EBCF8B51348EA
:10A3800000F028FC114D0026114C0C3D30B16169E4
:10A39000B9B101208DF80000684611E0287820B19D
:10A3A000616971B18DF80060F6E7687858B1A1680D
:10A3B000084800220068FFF759FD10B1A16901B1FA
:10A3C00088472E70F8BD6168F2E70000302C00204D
:10A3D00068320020B4D30700F0B54FF0FF3622B149
:10A3E0001268D24300230A4D0DE03246FAE7C45CFE
:10A3F00062400824D70700D037462F4087EA520230
:10A40000641EF7D15B1C8B42F1D3D043F0BD00003A
:10A410002083B8EDF0B5146906468DB02068154666
:10A42000271DE0B1022920D00A2000906B4609AA1E
:10A43000304602F0A2FA00280FD009A901A8009A1C
:10A4400002F076F901AE96E80F0005AE86E80F003F
:10A45000236869683A4605A898470DB0F0BD0DB06D
:10A460003046BDE8F04002F0D7B96946304602F008
:10A4700069F90028F1D0236869683A466846984728
:10A480000028EAD002980028F5D1019870600120D8
:10A49000E3E753685B7813F0C00303D0402B03D08D
:10A4A0000020704700F002B8FFF7B4BF2DE9FF416C
:10A4B0000B465168064614464878334D00F00F02AB
:10A4C00010F0300055F8225006D0102806D0202871
:10A4D00008D0302856D13EE022694DE06169012064
:10A4E000087047E0022B28D1042A26D84FF0010833
:10A4F00069463046676902F025F900281AD009E05C
:10A500000B79226913FB00226846A84770B138789E
:10A51000401C3870029820B1616838784A799042BE
:10A52000EED301987060029860BB02E04FF0000823
:10A53000F7E7404604B0BDE8F081D4E904300F7974
:10A54000027817FB023349798A421BD2521C0270EF
:10A550001A46616810E008786169072A087009D115
:10A56000606801792069FDF7A9FF6068216980684A
:10A5700002F003F92269616804B03046AC46BDE8D8
:10A58000F04160470020D5E734D5070010B50348F7
:10A5900000F0B2FCBDE81040FFF7D0BBA086010080
:10A5A00010B58EB004461C216846FDF787FF1421C4
:10A5B00008A8FDF783FF9DF80010002041F0180166
:10A5C00007908DF80010A1788DF836100121ADF8B4
:10A5D00034109DF81C1004F10C0321F0FF018DF8DC
:10A5E0001C109DF81D1008AA21F00F01491C21F034
:10A5F000F00110318DF81D109DF81E1021F006019C
:10A60000891C41F011018DF81E100DA9089107A9B0
:10A6100009911721ADF82C100C9020886946A2DF13
:10A620000EB010BD02488168491E8160704700006D
:10A63000002C00201FB50E4800F15C01826B6846BB
:10A6400002F076F80B489DE80E0080E80E000949FC
:10A6500009480B4AC8600949002008604860094958
:10A66000044801F0FFFD002800D0012004B010BD17
:10A670001C3600203832002099C507001C2C002011
:10A68000AC2C002040D307002DE9F0411F461600F6
:10A69000054600F104044FF0000127D037B394F8C9
:10A6A0005F0018B194F8600001281FD0207AE8B14B
:10A6B000E06834281AD100204FF44053227C13E084
:10A6C00004EB800CB3F80CE0DCF814C0F4450AD1BC
:10A6D00094F825004B4A60B1012813D002280DD010
:10A6E000032803D10AE0401C8242E9DC0A20BDE8CD
:10A6F000F08121780029F9D0916803E021780029C0
:10A70000F4D0D16820B1022806D0032807D103E095
:10A7100060688842EAD302E060688842E6D995F82A
:10A7200070000028E2D139483749034601602021F2
:10A7300041603A463146052000F05BFB0028D5D148
:10A74000314895F8712005F172012030FDF79DFE2A
:10A750002E482D4908382031016095F8711041606C
:10A7600003462A4A2A49042000F069FB08B1052063
:10A77000BDE7264D00201C3D286194F8251041B30B
:10A78000012933D023480229C0F5FC2027D0032912
:10A79000ACD194F82C100029A8D094F826100029E8
:10A7A000A4D0A26A216B53182B6132B329B3814222
:10A7B0000DD8202204F13F011348FDF766FE2869F9
:10A7C000D8B1124A0021103A00F0DEFEB8B10420E0
:10A7D0008DE794F83400002888D0A06B0BE094F843
:10A7E0002C10002982D0216B2961E0E794F8260023
:10A7F000002885D0A06A2861DBE7032077E70120E5
:10A8000075E700001C360020D83100201C2C0020E9
:10A81000A4D307000080070010B58EB004461C21A9
:10A820006846FDF74BFE142108A8FDF747FE9DF88A
:10A830000010002041F0040107908DF80010A1786D
:10A840008DF836100221ADF834109DF81C1008AABE
:10A8500021F0FF018DF81C109DF81D1021F00F0153
:10A86000491C21F0F00110318DF81D109DF81E10CB
:10A8700021F00601891C41F001018DF81E100DA97F
:10A88000089107A909911421ADF82C100C9020888B
:10A89000231D6946A2DF0EB010BD0000044A09B9AD
:10A8A000002313705268002A00D010477047000040
:10A8B000482C0020F8B51C4617460D46060018D057
:10A8C000BDB1B4B100F094F9A8B1284600F090F9F8
:10A8D00088B1204600F08CF968B1FDF797FF009031
:10A8E00023463A4629463046FDF794FF28B100201A
:10A8F000F8BD0E20F8BD1020F8BD0B20F8BD0000FB
:10A900000E4910B50A784C780023A24212D0521C8E
:10A91000D2B20A70022A00D10B70084A0B781832A2
:10A9200052F8232002608868104420F07F4088603D
:10A93000012010BD0360002010BD0000602C00202D
:10A94000F8B506461A481F46154600780C46C0075B
:10A9500008D03046FFF7AAFC30B13CB1200507D043
:10A960000620F8BD0120F8BD0220F8BD0320F8BD87
:10A970003068A04204D8716804EB0530884201D9E0
:10A980000520F8BD7DB1684601F08AFF68B10098E6
:10A990000221C0E900670172210B8181058201F06B
:10A9A000D3FF0020F8BD0420F8BD0720F8BD00004B
:10A9B000802C0020084A136823F00103136031B192
:10A9C00043F0020313604268002A03D0104723F0CB
:10A9D0000203F7E770470000442C00200348017889
:10A9E00041F001010170002070470000802C002020
:10A9F0000348406E042801D00020704701207047B2
:10AA0000B43700202DE9F84307461D48DDF82080C3
:10AA10001E46007815460C46C0070CD03846FFF796
:10AA200045FC50B15DB154B145EA0400800708D03F
:10AA30000620BDE8F8830120FBE70220F9E70320A8
:10AA4000F7E73868A04204D8786804EB86018842AA
:10AA500001D20520EDE77EB1684601F021FF68B123
:10AA600000980121C0E900780172C0E90354868290
:10AA700001F06AFF0020DCE70420DAE70720D8E7CE
:10AA8000802C002070B5174A17490446106E0B78C9
:10AA900000EB400002EBC0009D0715D5022C02D050
:10AAA000032C1BD102E001F04FFA17E04A78521C48
:10AAB000D2B24A70032A11D900224A70082102F04A
:10AAC00069F801F0D7FE09E0580707D523F0040024
:10AAD0000870526E12B140F002000870BDE870407C
:10AAE00001F0FABEB4370020802C002010B586B0EB
:10AAF00000249DF80000019420F00F00401C20F07D
:10AB0000F00010308DF80000029403A86DDF0028DB
:10AB10001CD19DF80D00401C8DF80D0003A86CDFC2
:10AB2000002813D107220AA168467CDF00280DD136
:10AB30000C20ADF804001820ADF80600ADF8084070
:10AB40004FF4C870ADF80A0001A87ADF06B010BD56
:10AB50004466755461726700F8B51D4C2078002872
:10AB600034D0206928B10026E06820B1002526B144
:10AB700013E00126F8E70125F9E76078002825D1E0
:10AB8000684648DF052803D020B1FFF785F804E0C8
:10AB9000012602E02169009888479DB96078002865
:10ABA00014D16088ADF800006946A06861DF05280F
:10ABB00003D020B1FFF770F804E0012502E0D4E9EA
:10ABC00002018847002ED8D0002DD0D0F8BD00005B
:10ABD000842C0020054940880A88904204D3498883
:10ABE000884201D80120704700207047282C00209F
:10ABF000800701D0002070470120704770B50546DE
:10AC000008680C464A6886682846314601F0D6FC3A
:10AC10006068286104F10C00686170780221B1EB72
:10AC2000901F01D1241D2C6170BD00002DE9F0435F
:10AC3000264CA4F110092278D9F8048099F8035021
:10AC4000404694F801C0D9F8086031E002EB4203B5
:10AC50006168521C01EBC301A378D2B2934200D1C8
:10AC600000220B78022B02D0032B21D11DE00346DA
:10AC70004F68194603E0B94203D00B46C969B9B120
:10AC8000F9E7A9B18B4205D1C06918B9104E012569
:10AC9000B56000260F68C969D96149B10B683B44AA
:10ACA0000B6005E00174C06900E000210028F9D1C3
:10ACB0009445CBD1C9E9010689F80350404502D03B
:10ACC0000120BDE8F0830020FBE70000702C00208D
:10ACD000001001402DE9F0412A4F0446002607F1FB
:10ACE0001005D7F804803EE002D02046E4691DE05C
:10ACF0002878696800EB4002401CC0B201EBC20139
:10AD00002870AA78904200D12E700A784868012AEB
:10AD10002BD1027C4ABB8A684260CA6882600A6999
:10AD2000C26049698161F97801B146604368BA68D7
:10AD3000DFF854C0991A21F07F41614502D2826840
:10AD4000114406E0D11A826821F07F418A4202D97B
:10AD5000511A016000E006604660012186600174BE
:10AD6000C66102F083F9002CBED128786978884248
:10AD7000BED17968414502D00120BDE8F0810020B4
:10AD8000FBE70000602C0020FFFF7F0010B5FFF7FD
:10AD90005FFA0220FFF754FA08490748C1F8000794
:10ADA00000F023F808B1FEF733FD4FF440508068FF
:10ADB00000F006F8002010BD0C0003004000005019
:10ADC00010B5044600F036FD00280DD14FF0E0210B
:10ADD000401EC1F88001204613DF002804D1204620
:10ADE000BDE81040FDF716BB10BD10B500F0AAFC81
:10ADF00010BD70B59CB01C4615460E46052802D005
:10AE000006201CB070BD6068202801D00920F8E73A
:10AE1000684601F081FF0028F3D12A463146684692
:10AE200002F03AF80028ECD101226846216801F0CE
:10AE3000EBFE0028E5D1202060600020E1E730B47F
:10AE4000042802D0062030BC70474868402802D150
:10AE50005868402801D00920F5E71B68D2E9004571
:10AE600008682A46214630BCFFF724BD00283ED0A2
:10AE70001F49204A096800BF00BF00BF00BF00BFD4
:10AE800000BF00BF00BF91422FD000BF00BF00BF76
:10AE900000BF00BF00BF00BF00BF00BF00BF00BFBA
:10AEA00000BF00BF00BF00BF00BF00BF00BF00BFAA
:10AEB00000BF00BF00BF00BF00BF00BF00BF00BF9A
:10AEC00000BF00BF00BF00BF00BF00BF00BF00BF8A
:10AED00000BF00BF00BF00BF00BF00BF00BF00BF7A
:10AEE00000BF00BF00BF00BF00BF401EC3D17047FE
:10AEF000982C00200024F40000283ED01F49204A4E
:10AF0000096800BF00BF00BF00BF00BF00BF00BF97
:10AF100000BF91422FD000BF00BF00BF00BF00BFE5
:10AF200000BF00BF00BF00BF00BF00BF00BF00BF29
:10AF300000BF00BF00BF00BF00BF00BF00BF00BF19
:10AF400000BF00BF00BF00BF00BF00BF00BF00BF09
:10AF500000BF00BF00BF00BF00BF00BF00BF00BFF9
:10AF600000BF00BF00BF00BF00BF00BF00BF00BFE9
:10AF700000BF00BF00BF401EC3D17047982C002007
:10AF80000024F40000283ED01F49204A096800BF71
:10AF900000BF00BF00BF00BF00BF00BF00BF9142A5
:10AFA0002FD000BF00BF00BF00BF00BF00BF00BF69
:10AFB00000BF00BF00BF00BF00BF00BF00BF00BF99
:10AFC00000BF00BF00BF00BF00BF00BF00BF00BF89
:10AFD00000BF00BF00BF00BF00BF00BF00BF00BF79
:10AFE00000BF00BF00BF00BF00BF00BF00BF00BF69
:10AFF00000BF00BF00BF00BF00BF00BF00BF00BF59
:10B0000000BF401EC3D17047982C00200024F400DC
:10B010002DE9F05F274C83464FF44059206B666A58
:10B02000D9F808204FF4805802EB000A371A454639
:10B03000AF4200D83D4600220121504600F0DAFA26
:10B04000002835D100232A465946504600F034FBEB
:10B0500000282DD12A465946504600F0BFFB002853
:10B0600026D100220121584600F0C4FA00281FD141
:10B07000206B28442063002000F01CFDAA44AB4450
:10B080007F1BD4D100223146D9F80800FFF7A4F97C
:10B09000A16A814203D10121A661C4E907010548E3
:10B0A000243000F08FFBBDE8F05F002000F002BD0F
:10B0B000BDE8F09F1C36002010B50A4C206A01281C
:10B0C0000BD1E06958B14FF44050A169806800226B
:10B0D000FFF782F9E169814201D0002010BD012013
:10B0E00010BD00001C36002070B50D460A680C49E2
:10B0F000496B541A0E18224631460A4800F06EFB7E
:10B1000028B121463046BDE8704000F075BB2846A6
:10B1100000F058FBBDE87040002000F0CBBC000000
:10B120001C360020008007002DE9F041404C91F8CA
:10B1300000C00F4615460126D4E90E1033023D4AE1
:10B14000BCF1070F70D2DFE80CF06F041C37186FEA
:10B150006800B86820B1984204D90420BDE8F081A5
:10B160000320FBE732480025957020213830FDF799
:10B17000A5F92563B868A06357E06860206CA860F3
:10B1800053E0BA6813188B4203D96860206CA8603A
:10B19000E6E7274B79685C331844FDF776F9E06BF6
:10B1A000B968234A0844E063D7E901014032FFF758
:10B1B00013F92064E06BE0E7884201D00820CDE776
:10B1C0009078144608B10120C8E7FFF733FA012848
:10B1D00021D1194890F87410C9B100F28C5190F83F
:10B1E0007A207830012A01D005200BE0114A1C3268
:10B1F0000CCAFFF749FA012804D1002000F05AFCDC
:10B2000010B10A20064610E00120A0700DE0007881
:10B2100008B10A2609E00520A0E7206CA860E06BD1
:10B22000C5E9003001E0FFE70226304696E700005E
:10B230001C360020002C0020AC2C002030B40B4B1E
:10B2400002464FF440501C69816803F11800012C3C
:10B2500008D05C6934B19B690C3003F6FF736FF35F
:10B260000B03194430BC00F003B800001C3600206A
:10B270002DE9F0410D46014616468A680020012A54
:10B280000CD00127A52A12D0AA2A1ED0AC2A1AD186
:10B290000C46284600F09EFBA0B91BE01049496906
:10B2A000012910D12846BDE8F041FFF7B1BE28467C
:10B2B0000C4600F08FFB28B9204600F083FA0020EE
:10B2C00000F0F8FB3760BDE8F0812846BDE8F041AA
:10B2D000FFF70ABF21462846FFF706FFF2E7000006
:10B2E0001C3600202DE9F05F15460C004FF0010BD5
:10B2F00058D0944F924E94F800C0D7E91410B27809
:10B30000BB6C4FF4805A4FF00009BCF1070F7DD29F
:10B31000DFE80CF07C0436EBE77CF100A16871B348
:10B32000874B0D051B6902D045189D423AD1514506
:10B330002FD8002A6BD00144994268D8F96CB964BF
:10B34000A1683865796438637178491C01F003019C
:10B350007170A6F80490B168491CB160A168F268E8
:10B3600001F6FF711044090B774A00F043F90028F9
:10B370007ED0B068401EB0600520BDE8F09F11E0AF
:10B380006960B86CA860002AD4D0A168B1F5807F4C
:10B3900001D90420F1E7386D7A6D0844801A7A6C7F
:10B3A000904201D90320E8E7664A60684832FFF717
:10B3B00013F8B864386DA268DFF890A110443865BE
:10B3C0006860B86CA860B088A268B8461118FF29F8
:10B3D00005D8777861680AEB072318443FE0C0F589
:10B3E000807173788FB20AEB032210443A46616889
:10B3F000FDF74BF8B088384481B2B180A068C01B1B
:10B40000A060606838444746606001E095E070E005
:10B41000D8F83000F268C91C1044B268521CB260FF
:10B4200073788A080AEB0321474B00F045F9E8B32B
:10B43000B068401EB060F86CB864786D38656860BC
:10B44000F86CA8607078401C00F003007070A6F8DB
:10B450000490A268002A6ED00AEB00206168FDF714
:10B4600014F82089B18808440104B080090C00E078
:10B470002CE060D0D8F85420D8F83000D8F8443008
:10B48000821A0A4444469A4255D3F268C91C1044B1
:10B49000B268521CB26073788A080AEB03212A4B07
:10B4A00000F00AF9C0B1B068401E00E00FE0B060E3
:10B4B000E06CA064606D20656860E06CA8607078E6
:10B4C000401C00F003007070A6F8049033E0B188CF
:10B4D000386B08443863B5E7B188206B08442063B3
:10B4E000EDE76960B86CA86025E07A6C081A9042B4
:10B4F00002D0082041E71AE0C7F84490FB6400201E
:10B50000796500F0D7FA08B10A2036E7386D31695D
:10B51000884203D00FE000BF00F034FBB068002881
:10B52000FAD10A48B03800F091F9834603E0AB60E5
:10B53000386DC5E900A058461FE70220F5E7000076
:10B54000002C00201C36002025A60700D82D002046
:10B5500010B54FF0A040D0F81005000C10F0010F0E
:10B560000DD00848816D012901D0002010BD0021B7
:10B570008165084600F09EFA08B1FEF78DFB0120B8
:10B5800010BD00001C360020F0B54FF010235C69A0
:10B590004FF440539B68E71AA7F54057874219D3E9
:10B5A000134C1360A4F1180300251E6A012E06D067
:10B5B0001D615D616560A56020600020F0BD2668AA
:10B5C00006F6FF766FF30B06A7EB060C0127604526
:10B5D00005D909B10420F0BDC3E90475EAE7C3E960
:10B5E00004571168024C31440C341160E2E700004A
:10B5F000343600202DE9FF410E4621490446154608
:10B600000868002742071BD5820703D50A2004B02B
:10B61000BDE8F08140F0010008608846B2B22B46D8
:10B6200021461848FFF78CF9D8F80010070002D01F
:10B6300021F0010101E041F00101C8F800101DE016
:10B64000200501D00620E2E7C4F30F38204600F0C1
:10B65000D1FA04F58054761EF8D17DB10A4801680C
:10B66000D0E90220CDE90220CDE90015200BADF88C
:10B670000880ADF80A0000216846A8473846C6E7AA
:10B68000442C00209C2C0020CCD3070010B50100D6
:10B69000074C4FF0000009D0FFF7A0F918B9054892
:10B6A00001F094FC08B1082010BD0421216010BDF8
:10B6B000442C002085AA07002DE9FF4116461F4AA9
:10B6C00005461C4610680027430719D5830703D594
:10B6D0000A2004B0BDE8F08140F0010010609046FF
:10B6E0000A46B3B2294616480094FFF78BF90700C3
:10B6F000EFD1D8F8001041F00101C8F8001019E0AE
:10B7000031B12DB141EA0500800703D00620E0E702
:10B710000320DEE786B13246284600F083FA4CB1BA
:10B720000020CDE90250CDE900040146ADF80C60DF
:10B730006846A0473846CCE70420CAE7442C0020DE
:10B740009C2C002038B50020009000F089F9684654
:10B75000FFF774FD012400B10094FFF7F9FE08B172
:10B7600000940EE0009860B9FFF7A6FC48B1FFF71F
:10B77000A3FC20B14FF440508068FFF721FB00206C
:10B7800038BD0E4B0E4A05210020FEF737FB08B1ED
:10B79000FEF782FA0A4A142178320820FEF7EEFA00
:10B7A00008B1FEF779FA00F0D7F90028E8D100F0E7
:10B7B000C9F800BFFEF7C2FAFCE70000E59D0700EC
:10B7C000F83200200021016041608160024801637D
:10B7D00041630161416170471C3600201FB5054B74
:10B7E00001AC92081B6A009384E80700684618DFE2
:10B7F00004B010BDDCD307001FB58908002201ABDF
:10B80000009283E80700684618DF04B010BD00000E
:10B810001FB59208930502D0092004B010BD044B57
:10B820001B6800930392CDE90110684618DFF4E726
:10B83000DCD307001FB5044B0FCB8DE80F00684623
:10B8400018DF04B010BD0000ECD307002DE9F04173
:10B85000044690F83D000125DFF8D880032808D081
:10B860000A25354E7069E0B101281DD00A20BDE8D7
:10B87000F081304E31481C363346306020207060F5
:10B88000D8E903120520FFF7B4FA00B10A252022F7
:10B8900004F13F013068FCF71CFE0028E1D00525CB
:10B8A000DFE72548183001E0234824300027012D28
:10B8B00015D08760476007601F4820213830FCF7AB
:10B8C000FDFD1D48FF22B2215C30FCF7F0FD1C4855
:10B8D000376300F0EFF800B10A252846C7E794F86F
:10B8E000251079B101290FD002290FD0032910D0DA
:10B8F0005FF00A0594F8251081B1022911D00329BF
:10B9000011D10EE0012102E0A52103E0AA2181600E
:10B91000F0E7AC218160A16A7163EBE76168B16017
:10B9200001E06168F160B16C4160D8F8101001600D
:10B93000C2E70000002C00201C360020D831002077
:10B9400021BF070070B50120FFF7A0FE00281BD122
:10B950000E4D0F4CA860A06BA8B1FEF76BFE90B126
:10B96000206A50B9A06940B1084A00210C32286110
:10B97000FFF70AFE0120A87005E0E06A18B9A06987
:10B9800008B1606AF0E7002070BD0000002C0020C4
:10B990001C36002030B40C780D4B012C01D0062C45
:10B9A00008D10C79012C04D0022C02D0072030BC25
:10B9B00070471C701B78012B03D0022B04D005208C
:10B9C000F5E730BCFFF7B0BB30BCFFF78BBC000025
:10B9D000002C00202DE9F0411C4A034640F6FF757B
:10B9E000166B516B30460C1A04F6FF746FF30B04A0
:10B9F00005EB9405F7186FF30B0506F5805621B19A
:10BA0000884202D10020BDE8F08190462A4639469E
:10BA10003046FFF7FDFE0028F5D12A46394630466C
:10BA2000FFF7DCFE0028EED12E442F44A54201D9B9
:10BA3000002400E0641BD8F834100020091BC8F86B
:10BA4000301000F037F8002CE0D1DCE71C36002085
:10BA5000002258210148FEF7BFBC0000203600201C
:10BA600070B5114900204FF4AE7508702A460F4991
:10BA70000F48FCF70AFD0E4C2068401C04D0FFF76D
:10BA8000E7FF216881420ED029460948FCF716FDE0
:10BA900001206060002000F00DF8002803D0BDE810
:10BAA0007040FEF7F9B870BD482C002000F0070088
:10BAB0001C36002070B50546174C01E0FEF766FD08
:10BAC00020780028FAD101202070656001F0A4FBE5
:10BAD000002201211148FFF78DFD0728F6D000252F
:10BAE000B0B9FFF7B5FF0E494FF4AE720860A1F58B
:10BAF000AE70FCF7CAFC00BF01F08EFB094B572269
:10BB000009490648FFF7D8FD0728F5D0002801D0DD
:10BB10002570032070BD0000482C002000F00700B5
:10BB20001C3600209DA80700C034002070B50848CE
:10BB3000084D401BC6080020044606E005EBC40083
:10BB400040688047002802D1641CB442F6D370BD1F
:10BB500030D6070028D6070070B50848084D401BAE
:10BB6000C6080020044605E055F834008047002848
:10BB700002D1641CB442F7D370BD000030D6070078
:10BB800028D60700FEF7DAB803490120C1F80803F8
:10BB9000091D08607047000000D0004070B541EA00
:10BBA0004201DDE904564FF0A04441EA830141EA35
:10BBB000052104EB800041EA0641C0F8001770BD82
:10BBC0004FF0A04202EB80000321C0F8001770473D
:10BBD0004FF0A04201218140C2F8081570470122B0
:10BBE0004FF0A043824011B1C3F808257047C3F855
:10BBF0000C257047094A0221116009490B68002B86
:10BC0000FCD0064B1B1D186008680028FCD00020E3
:10BC1000106008680028FCD07047000004E501406F
:10BC200000E4014070B50C4D01232B600B4C2368E0
:10BC3000002BFCD0002307E051F8236040F823607C
:10BC40002668002EFCD05B1C9342F5D300202860B0
:10BC500020680028FCD070BD04E5014000E40140EC
:10BC6000016880684A68824201D2521C00E00022CA
:10BC70000868824201D10120704700207047806827
:10BC8000884201D9481C7047002070472DE9F843CD
:10BC900004464FF000080E468DF800806846FEF717
:10BCA00039F92046FFF7DCFF07000AD0207C40B1BD
:10BCB0004FF004089DF80000FEF750F94046BDE83B
:10BCC000F8832068416820460D46FFF7D8FF2168B9
:10BCD000486037B1206801682046FFF7D0FF21682F
:10BCE0000860E268012A14D0022A16D0042A19D06A
:10BCF000082A1CD06068314605FB0200FCF7C5FB32
:10BD0000204600F02FFE21688A688242D2D28860E5
:10BD1000D0E7616830784855F2E76168308821F8EB
:10BD20001500EDE76168306841F82500E8E7D6E9DD
:10BD30000001626802EBC502C2E90001E0E7000011
:10BD400070B5374D044600882E8850285DD01FDC22
:10BD5000112831D012DC02283DD010280DD14FF02F
:10BD6000A0418003C1F80C051120FFF731FFA08826
:10BD70002880A86820F00200A86070BD132824D095
:10BD80001428FAD10023A0881A46194686DF0DE050
:10BD9000512824D0522832D055283CD05628ECD1F6
:10BDA000A0790028E9D11321304676DF0028E4D0BD
:10BDB000BDE87040FDF770BFFDF73CFF08B1FDF72F
:10BDC0006BFF4FF6FF70288070BD00231A46852157
:10BDD00030467FDFEAE70021304667DFE6E7A079FB
:10BDE0000028F1D021460F4800F0D8F80028EBD009
:10BDF00004F10801BDE870400A4800F015B80023BE
:10BE0000A0881A461946A9DFD0E72146BDE8704050
:10BE1000044800F00DB9A0881721ADDFC6E7000087
:10BE2000382C0020D432002010B586B00446002003
:10BE30000090019002900390049005900B7B37488E
:10BE4000072B67D2DFE803F0660429351E66490038
:10BE50004A89062A01D0032212E042888280487B68
:10BE600004904A7CD1F80E0003A962F31F6005908C
:10BE700001208DF80C006A460020FFF78BFD02467A
:10BE800001213DE003208DF80C006A4603A9002043
:10BE9000FFF780FD0246042132E04A89032A01D0DF
:10BEA000032204E0B1F80D104180818001220221BB
:10BEB00026E004208DF80C006A4603A90020FFF755
:10BEC00069FD0246012801D0032119E0DDE90112D4
:10BED000204600F083FD06B010BD4889022801D03D
:10BEE00003220CE0487B049006208DF80C006A4683
:10BEF00003A90020FFF74EFD0246012804D00621C9
:10BF0000204600F0D1FDE6E79DE80E00204600F057
:10BF100095FDE0E703221946F2E70000382C0020E7
:10BF2000FFF704FEBFF34F8F05480168054A01F48F
:10BF3000E06111430160BFF34F8F00BFFDE70000D8
:10BF40000CED00E00400FA05134A10B50021517011
:10BF5000017A012912D002291DD18189491C8181D0
:10BF6000C189491C89B2C181028A914213D1002141
:10BF700000F010FEBDE8104000F07CBC838AC28A4D
:10BF80004FF480619C1A8C4200DAA1B2114489B24C
:10BF9000C1829942EBD010BD802C002030B587B013
:10BFA000002401940294039404948A1D8B7908312F
:10BFB000022B35D153888589AB4231D1127A042ABC
:10BFC0002ED0062A2CD0052A2AD0022201238DF851
:10BFD00004208DF80A300B89ADF80C304B890C31F8
:10BFE000CDE90414ADF81420104DADF80E30CDF8A5
:10BFF00018D0018A05AA2888A5DF18B96846FEF777
:10C0000012F930B1ADF8084001A92888A8DF50B175
:10C0100006E040F2FD10ADF8080001A92888A8DF6D
:10C02000002007B030BD0120FBE70000382C0020C5
:10C0300030B50546C888AA8887B0904223D1002031
:10C040000590039004900090029002208DF800006B
:10C0500001F112000190088A029003AA69460020AB
:10C06000FFF798FC094C608800280CD0A088401E7F
:10C070000004000CA08006D1DDE90412284600F07F
:10C08000ADFC6088A08007B030BD0000382C0020D7
:10C09000F8B50D4614460646694600F057FA0028E2
:10C0A0000ED0009BFF2B0AD8581C834207D8697812
:10C0B0000222B2EB911F02D02979814201D20020E5
:10C0C000F8BD2370611C3046009A00F069FBF8BD92
:10C0D000114600F0D6B8114600F0E3B8F8B50C46AA
:10C0E00015460646694600F031FA00280CD0009A41
:10C0F000501C904207D361780223B3EB911F02D00A
:10C100002179814201D20020F8BD2946304600F055
:10C1100047FB009A0021A954F8BD2DE9FF410C46C8
:10C120008E6817460546694600F00CFB00280ED0C5
:10C13000A06800280BD060783A46C0F301100228AE
:10C140003146684606D000F0DBF80199696004B01A
:10C15000BDE8F08100F086F8F7E77CB50D4614469F
:10C16000694600F090F9002820D02879082806D0E8
:10C17000042809D002280AD001280CD015E0DDE9F6
:10C180000001C4E900010AE00098206006E0009880
:10C1900000B2208002E0009840B22070C117DDE9B3
:10C1A000002350405940084301D000207CBD0120AD
:10C1B0007CBD7CB50D461446694600F0A2F9002806
:10C1C00020D02879082807D00021042809D0022887
:10C1D0000AD001280CD014E0DDE90001C4E9000117
:10C1E00009E00098206006E0009880B2208002E01C
:10C1F0000098C0B22070DDE9002350405940084348
:10C2000001D000207CBD01207CBD7CB50D461446CC
:10C21000694600F076F9002821D02979082908D04C
:10C220000098C21704290BD002290DD001290ED085
:10C2300014E0DDE90002C4E900020146134609E00A
:10C24000C3170146206005E001B2218001E041B240
:10C250002170CB1741405340194301D000207CBDD1
:10C2600001207CBD70B50D46064614461146284691
:10C2700000F083FA224629463046BDE8704000F0BF
:10C280003FB838B50C460422694600F089FA002808
:10C2900006D09DF80310009861F31F602060012014
:10C2A00038BD1CB50C460822694600F079FA002812
:10C2B00024D09DF801109DF800209DF80230080E52
:10C2C00042EA012242EA034240EA13409DF8033069
:10C2D0009DF8041040EA132008439DF8051042EA37
:10C2E000036240EA01209DF8061040EA01409DF8F3
:10C2F000071040EA0160C4E9002001201CBD0000D5
:10C300002DE9F04F04469DB00020009006460190B4
:10C310004FF0FF3A0AA800F051F94FF0010BE9463F
:10C3200082E012AB05AA06A9204600F0C9F850B178
:10C330000AA8059900F053F960B10B98407810F005
:10C34000300F53D060E09DF84800002870D11DB038
:10C35000BDE8F08F0598B04242D30B9D0AAE0B9812
:10C36000407800F00F00082812D0304600F04EF957
:10C370000B98A842F3D156460599B14230D3D4F870
:10C38000088009919DF8181008910E990D6820E019
:10C390000B980678F0E729680F682FB1DDE90832BD
:10C3A00029462046B84711E011948968DDE90872F2
:10C3B000097891420CD1294617A8FEF71FFC85F891
:10C3C0000CB017AA39461198FEF763F80028BED0C2
:10C3D000AD6815B1A1684145DDD0A168414523D1C3
:10C3E0009DF81810204600F017FA1BE00C98402822
:10C3F0000AD200F01F010BFA01F00C994A0959F812
:10C400002230034349F82230E5682DB10AAB9DF88C
:10C41000182020460599A8470AAA9DF8181020461A
:10C42000FEF737F8002892D0A06800287FF479AF93
:10C43000DDE90B0445780AA800F0E8F80028F7D1F8
:10C4400015F0300F03D10B98007800B1641CC4B113
:10C450000020494605E000BF51F82020521C0ED1B3
:10C46000401CB0EB541FF7D3600959F8201004F0BA
:10C470001F00C0F120022AFA02F0814201D0002000
:10C4800065E7012063E71CB50C46694600F039F802
:10C49000002814D0DDE90002C10709D051084FEA95
:10C4A00030006FEA00026FEA0100C4E9002004E0F6
:10C4B00051084FEA3000C4E900014FF001001CBDF3
:10C4C000F8B507460020187008700E4610601C462C
:10C4D00015466946384600F039F801004FF0010072
:10C4E00009D0009959B1C8082860009800F00700E9
:10C4F00030700120F8BDB96809B10020F8BD207086
:10C50000FBE72DE9F8430026884681463446354648
:10C5100004E0402E02D30020BDE8F8836946484677
:10C5200000F06AF90028F7D09DF80070324607F055
:10C530007F00C10FFBF79AFF29430443F61D0D4608
:10C540003806E6D4C8E900410120E5E7F8B50E4613
:10C550000746694600F050F900280AD09DF80040CF
:10C56000200616D5072504F07F0403E0202D01D313
:10C570000020F8BD6946384600F03EF90028F8D0A2
:10C580009DF8001001F07F00A8400443ED1D08064F
:10C59000ECD401203460F8BD5968064A896891429C
:10C5A00006D1D0E90110044A401E491CC2E900101E
:10C5B0007047000050D207001C2C0020C2600023EE
:10C5C0000160C0E901138B781A44026191F90330CC
:10C5D0001A4442610878002800D00120704770B5E5
:10C5E00045680E46044660680178B14206D140783D
:10C5F00000F00F00082801D0012070BD204600F097
:10C6000005F86068A842EED1002070BD30B54168E1
:10C610000A785AB101F10C0343600A7B42B14C78AD
:10C620000A79C4F30115032D07D00BE0002030BDBB
:10C63000C2680168FFF7C2FFF8E75D78C5F301152E
:10C64000032D07D00225B5EB141F09D14C7914FB3B
:10C6500002F209E08D7804690022641B046103E0A2
:10C66000B5EB941F00D10422497811F0300F02D1AC
:10C670008168491C81609C780169214411440161F1
:10C6800093F9032011444161012030BD30B5416868
:10C69000002487B0497801F00F02082A11D08A09D6
:10C6A0001ED00222B2EB911F09D10269C1F3011120
:10C6B0000229146001D0032901D14069047007B038
:10C6C00030BD0069056808E02C7329466846FEF70E
:10C6D00095FA6846FFF7DAFFAD68002DF4D1EEE772
:10C6E000C1F30111012912D00229E6D00329E4D0B7
:10C6F0004268517801F00F0107290BD0916881B190
:10C700001279006907B0BDE83040FBF7BEBE416951
:10C710000C70EDE70169906807B0BDE8304000F0AB
:10C720002CB81179006907B0BDE83040FBF7C6BEF0
:10C7300010B5034B002408C080E8160010BD0000AF
:10C740008FA2070038B50D4604466946FFF7FEFE86
:10C7500000280BD0D4E90002D4E90213C5E9000295
:10C76000C5E902130098814201D2002038BDA860BB
:10C77000A168081AA060012038BD00B50A4687B03C
:10C7800001466846FFF71AFF002807D06846FFF702
:10C790007DFF6846FFF73AFF0028F7D107B000BDDC
:10C7A0007FB514460546A9B9124A2868904208D1B7
:10C7B00010E0102269462846FFF7F2FF002807D054
:10C7C000103C102CF5D8224669462846FFF7E8FFB2
:10C7D00004B070BDA868A04201D20020F8E72B6821
:10C7E0002246284698470028F2D0A868001BA86077
:10C7F0000120EDE78FA2070010B5044680680028ED
:10C8000009D02368012220469847002803D0A06859
:10C81000401EA060012010BD38B5002439B10129A7
:10C8200012D0022912D005291DD0002038BD05469E
:10C83000012269462846FFF7B3FF90B19DF800003A
:10C840000006F5D4012038BD08220DE005466946F2
:10C85000FFF77CFE28B100212846009AFFF7A0FFD1
:10C8600038BD204638BD0422BDE838400021FFF71E
:10C8700097BF00000848416E491E416604D1074930
:10C880000A7822F002020A70016E491C016604292E
:10C8900001D1002101667047B4370020802C0020B0
:10C8A00070B50C490446486E042811D00A6E024443
:10C8B000042A00D3121F401C486602EB420001EB21
:10C8C000C00005461821FBF7F9FD0120256070BD69
:10C8D000002070BDB4370020194830B4016E01EB60
:10C8E000410100EBC104406E002827D0207A0128C6
:10C8F00002D0022816D10FE0A18AE08A4FF48062AC
:10C90000091A914200DA8AB2E168236901EB8001D9
:10C9100003EB800029DF01E0A08928DF112806D081
:10C9200000280BD0204630BC092100F033B905495E
:10C93000087820F0020040F00400087030BC704716
:10C94000B4370020802C00200549087810F0060F2D
:10C9500004D140F002000870FFF7BEBF704700002E
:10C96000802C0020016806C98A4201D3501A704702
:10C970008068401A401C104470472DE9F0411E6841
:10C980001C461546074621B1012918D0052923D197
:10C9900019E000202060401C2060B0421CD8012219
:10C9A00029463846FFF7FCFE002806D015F8010B93
:10C9B000000601D52068EEE70120BDE8F0810820DF
:10C9C0000246186002E004200246186029463846F4
:10C9D000BDE8F041FFF7E4BE0020EEE72DE9F041AD
:10C9E00090460A4606001FD0124D2888A0F57F41C8
:10C9F000FF391CD0287AC00719D00F4C60200121C4
:10CA0000207003206070A170E11C104600F0B2FBA2
:10CA1000C71CE119404600F0ADFBC219B189288856
:10CA2000BDE8F04100F0DCB80E20BDE8F081082040
:10CA3000FBE70000382C0020E83200202DE9F04709
:10CA4000904699460A46060024D0154D2888A0F540
:10CA50007F41FF3921D0287AC0071ED0114C6020B9
:10CA60000621207061700120A070E11C104600F0CA
:10CA700081FBC71CE119404600F07CFB0744E1192B
:10CA8000484600F077FBC219B1892888BDE8F04715
:10CA900000F0A6B80E20BDE8F0870820FBE70000F4
:10CAA000382C0020E832002030B498B10C4B1C88A0
:10CAB000A4F57F45FF3D10D01B7ADB070DD0094B55
:10CAC00060251D7059709A708189204630BC032200
:10CAD00000F086B80E2030BC70470820FBE700004D
:10CAE000382C0020E832002070B5012670044FF089
:10CAF000E0210025C1F88001084C4010C4F848032B
:10CB0000C4F8080366602F20FEF73CFAA660044CC8
:10CB10002F20A560FEF736FAA57070BD0010014009
:10CB2000602C002010B50446FDF73AF840B1002C07
:10CB300009DA04F00F0000F1E02090F8140D06E08F
:10CB400042F2010010BD04F1E02090F80004410918
:10CB5000082914D299B1012911D004290FD005292F
:10CB60000DD00B480122816861B1610950F8213074
:10CB700004F01F04A240134340F8213005E042F2C4
:10CB8000020010BD2046FCF71DFE002010BD000075
:10CB9000A83700201FB50022009201920292039252
:10CBA000037A012B02D0022B13D107E08DF800206D
:10CBB00002690292828AADF80C200AE001228DF807
:10CBC00000208289C389D21AADF808208289ADF885
:10CBD0000A204268019200688268684690471FBD3B
:10CBE00007B584B000220092ADF8001001218DF845
:10CBF000021006A902910349039101926946A6DF3A
:10CC000007B000BDE832002070B516460D4604009E
:10CC100007D035B1206C802200213828225403D35C
:10CC200007E00E2070BD2154401C3828FBD30BE0D8
:10CC30002154401C4028FBD32146084600F096F8BA
:10CC400038212046FBF73AFC216CD4E912304A0F18
:10CC5000C900383459185041C4E90410227CE271EB
:10CC60000A0A42EA0062A2710A0C42EA00426271B8
:10CC7000020242EA116020716069E070010AA1704D
:10CC8000010C6170000E04F838092146084600F0D6
:10CC90006DF84FF00002EEB1E06ED100C840A8542C
:10CCA000A36ECB40A8180371636ECB400372236E52
:10CCB000CB400373E36DCB400374A36DCB4003758E
:10CCC000636DCB400376236DCB40521C0377042A5F
:10CCD000E2D31FE018235042216D03EBC000C14096
:10CCE000A954666DC640A9180E71A66DC6400E7295
:10CCF000E66DC6400E73266EC6400E74666EC64064
:10CD00000E75A66EC6400E76E66EC640521C0E77B5
:10CD1000042AE0D3002070BDA8B100210164C0E95D
:10CD200012110A4901650A4941650A4981650A49A2
:10CD3000C1650A4901660A4941660A4981660A498C
:10CD4000C166002070470E207047000067E6096A40
:10CD500085AE67BB72F36E3C3AF54FA57F520E511C
:10CD60008C68059BABD9831F19CDE05B2DE9F04F93
:10CD7000C8B0002213466F46CC181B1D2568E47806
:10CD80002DBA25F0FF05254347F82250521C102AE2
:10CD9000F2D31BE007EB820151F8083C4FEA7344E1
:10CDA00084EAF34484EA932451F83C3C4FEAF315B7
:10CDB00085EAB34585EAD303234451F81C4C51F866
:10CDC000401C2144194447F82210521C402AE1D348
:10CDD000036D4793416D4691846D4594C26D4492B5
:10CDE0009246026E4392456E4295A946856E4195E4
:10CDF000C66E4096B34600264FEAB21787EAF2277E
:10CE000087EA726C02EA090725EA020887EA08073E
:10CE1000BC44204F57F8268008EB0B07BC445DF854
:10CE20002670AB460CEB070E4FEAB30787EA733761
:10CE300087EAB35C81EA04074D4601EA040891469B
:10CE40001F400AEB0E02A24687EA08070C46BC44C4
:10CE50001946761C0EEB0C03402ECDD3479E33446F
:10CE60000365469B19444165459921448165449970
:10CE70005144C16543991144016642994944416650
:10CE800041992944816640995944C16648B0BDE83A
:10CE9000F08F000034D407002DE9F04116460F460C
:10CEA000040004D006B317B10025A8461AE00E20EE
:10CEB000BDE8F081216C785D6054206C401C2064DA
:10CEC00040280ED121460846FFF750FFD4E9120151
:10CED0004FF40072801841F10001C4F84080C4E9A9
:10CEE00012016D1CB542E5D30020E1E718B10349FA
:10CEF000C860002070470E2070470000842C00207E
:10CF00001CB5034901910091694660DF1CBD00001A
:10CF1000002C002070B50E46054614461C21104614
:10CF2000FBF7CCFA012020800021A1612175267237
:10CF3000657205B1A072002070BD10B511B100205E
:10CF4000FCF7AAFEBDE81040FDF706BE0021024A2C
:10CF50000846FCF7A3BE00003BCF0700FCF79ABED3
:10CF60002DE9F041074619B188074FF0000402D0BF
:10CF70000720BDE8F081104D4FF0E0200126A960A8
:10CF80006A806B60D0F8000110F4005F03D0344673
:10CF90000D20FCF701FC0949384610DF070005D0D9
:10CFA00014B10D20FCF70EFC3846E2E72E70BDE808
:10CFB000F0411620FFF7B6BD842C00205DCF07009E
:10CFC0000148007870470000842C002018B1034904
:10CFD0000861002070470E2070470000842C00205C
:10CFE0002DE9F84F204C00256846D4E901B6FDF73D
:10CFF00087FC8046FDF71AFE0746A946B8F1000FE8
:10D0000025D00023009ACC46606819E007680146E5
:10D01000974202D9BA1A026014E0C1F800C0D1F8F0
:10D020000C80D21BC8693B448A46B8F1000F07D078
:10D03000F71827F07F47C1E90178CAF81C500D4660
:10D040000028E3D160602846FDF744FE04E028464E
:10D05000FDF740FE00B917B15846FDF737F984F8DF
:10D060000390BDE8F88F0000602C00200D4B10B538
:10D07000596831B102680C68A24204D8A21A0A6049
:10D08000C161586010BD0B4603E00B46C969121B15
:10D0900021B10C689442F8D3A41A0C600260C161FB
:10D0A000D86110BD602C00207CB5064600240D46DA
:10D0B0008DF800406846FCF72DFF01A800F094F8B9
:10D0C00070B10570094946609DF8040048709DF8EC
:10D0D0000000FCF743FF1420FCF77FFB20467CBDDB
:10D0E00004249DF80000FCF739FFF7E7702C0020BE
:10D0F0002DE9F0411D4D6C68002C35D01C480027EF
:10D100000068A968B846401A20F07F462068B042FF
:10D1100015D82246361A0744E469107C68B182F8B3
:10D120001080EB6833B1D2E90501984728B1FCF7CC
:10D13000B3FD02E0D2E905108847002CE6D129783A
:10D140006878814206D1401CC0B26870022801D1C3
:10D1500085F8018005486978183040F82170BDE8ED
:10D16000F0411420FCF739BBBDE8F081602C0020B1
:10D17000041501400870020A4A70020C8A70000E01
:10D18000C87004207047000038B515494888A0F5DC
:10D190007F42FF3A23D04A78124C521CD2B24A70D6
:10D1A000237B93420AD3091D75DF002817D0A1699C
:10D1B000002914D001B0BDE83040084700254D706B
:10D1C000217C29B13B2176DF10B1A16901B18847EB
:10D1D0006169002903D08DF800506846884738BD42
:10D1E000242C0020683200200A4A10B55378947825
:10D1F000591CC9B28C4200D1002114788C4201D153
:10D20000002010BD0170506803EB430100EBC1002A
:10D2100010BD0000702C002010B501E0FDF7B6F93C
:10D22000FDF7E6FB0028F9D110BD00000101000068
:10D2300001000000000000000205000021000000C5
:10D2400000000000000000000000000000000000DE
:10D25000011104FC0400000000000000021104FCA5
:10D260000400000000000000032104FC040400008E
:10D2700000000000041101FF010000000000000098
:10D28000051102FE0400000000000000061104FC6D
:10D290000400000000000000071104FC040000006E
:10D2A00000000000081701FF220000002CD2070038
:10D2B000091001FF010000002AD207000000000051
:10D2C0000000000000000000010100000400000058
:10D2D000000000000000000000000000000000004E
:10D2E000011101FF0100000000000000021702FE12
:10D2F0006400000050D20700031704FC0400000083
:10D30000C8D207000000000000000000000000007C
:10D310000107000070000000E0D2070002010000D9
:10D3200001000000000000000305000041000000B3
:10D3300000000000000000000000000000000000ED
:10D34000011704FC70000000E0D20700021704FC83
:10D35000B400000010D3070000000000000000002F
:10D360000000000054CB46B32052DD910E395E73AD
:10D37000BA261C122110F6CF67AB04505B8C591DE6
:10D38000215B51D53B0E61F61B44442FFD4B7A9D2A
:10D3900028F5B3BBF721DCEAD2070F50D8B132AC85
:10D3A0006167DF9164D3070040000000111213147D
:10D3B0000D0E0F10483200200100000750EADA304D
:10D3C0008883B89F604F15F30000C98E01000000EC
:10D3D000000000000000000000000000010000004C
:10D3E000000000000000000000000000020000003B
:10D3F000000000000000000000000000030000002A
:10D400000000000000000000000000000400000018
:10D410000000000000000000000000000007000005
:10D420009C37002078370020200000000100000019
:10D4300000000000982F8A4291443771CFFBC0B59D
:10D44000A5DBB5E95BC25639F111F159A4823F92CF
:10D45000D55E1CAB98AA07D8015B8312BE85312428
:10D46000C37D0C55745DBE72FEB1DE80A706DC9BE9
:10D4700074F19BC1C1699BE48647BEEFC69DC10F95
:10D48000CCA10C246F2CE92DAA84744ADCA9B05CD1
:10D49000DA88F97652513E986DC631A8C82703B094
:10D4A000C77F59BFF30BE0C64791A7D55163CA06A2
:10D4B00067292914850AB72738211B2EFC6D2C4DAE
:10D4C000130D385354730A65BB0A6A762EC9C2819C
:10D4D000852C7292A1E8BFA24B661AA8708B4BC232
:10D4E000A3516CC719E892D1240699D685350EF45C
:10D4F00070A06A1016C1A419086C371E4C77482713
:10D50000B5BCB034B30C1C394AAAD84E4FCA9C5B88
:10D51000F36F2E68EE828F746F63A5781478C884D9
:10D520000802C78CFAFFBE90EB6C50A4F7A3F9BEBB
:10D53000F27871C60BC20700B3C107005BC10700D8
:10D54000D1C00700D7C0070091C00700DDC00700A9
:10D550001BC107000000000008200001FFFFFFFFC3
:10D56000FFFFFFFFFFFFFFFF0000000000000000C3
:10D570000000000001000000FFFFFFFF512563FCD9
:10D58000C2CAB9F3849E17A7ADFAE6BCFFFFFFFF3E
:10D59000FFFFFFFF00000000FFFFFFFF96C298D8CB
:10D5A0004539A1F4A033EB2D817D0377F240A463CC
:10D5B000E5E6BCF847422CE1F2D1176BF551BF37D5
:10D5C0006840B6CBCE5E316B5733CE2B169E0F7CA8
:10D5D0004AEBE78E9B7F1AFEE242E34F4B60D22775
:10D5E0003E3CCE3BF6B053CCB0061D65BC8698766B
:10D5F00055BDEBB3E7933AAAD835C65AB7860700AC
:10D60000299707004595070030D60700002C002019
:10D61000AC000000809B0700DCD60700AC2C00208B
:10D62000742B0000909B070041A10700E5A00700B4
:10D6300001000000000000000000000000000000E9
:10D6400000000000000000000000000000000000DA
:10D6500000000000000000000000000000000000CA
:10D660000000000000000000FFFF000000000000BC
:10D6700000000000000000000000000000000000AA
:10D68000000000000000000000000000000000009A
:10D69000000000000000000000000000000000008A
:10D6A000000000000000000000000000000000007A
:10D6B000000000000000000000000000000000006A
:10D6C00000000000000000000090D00300100000E7
:0CD6D00000300800B5A9070000000000B1
:020000041000EA
:041014000080070051
:04000005000784016B
:00000001FF
